{
  "_format": "hh-sol-artifact-1",
  "contractName": "NFTMarketplace",
  "sourceName": "contracts/NFTMarketplace.sol",
  "abi": [
    {
      "inputs": [],
      "stateMutability": "nonpayable",
      "type": "constructor"
    },
    {
      "anonymous": false,
      "inputs": [
        {
          "indexed": true,
          "internalType": "address",
          "name": "owner",
          "type": "address"
        },
        {
          "indexed": true,
          "internalType": "address",
          "name": "approved",
          "type": "address"
        },
        {
          "indexed": true,
          "internalType": "uint256",
          "name": "tokenId",
          "type": "uint256"
        }
      ],
      "name": "Approval",
      "type": "event"
    },
    {
      "anonymous": false,
      "inputs": [
        {
          "indexed": true,
          "internalType": "address",
          "name": "owner",
          "type": "address"
        },
        {
          "indexed": true,
          "internalType": "address",
          "name": "operator",
          "type": "address"
        },
        {
          "indexed": false,
          "internalType": "bool",
          "name": "approved",
          "type": "bool"
        }
      ],
      "name": "ApprovalForAll",
      "type": "event"
    },
    {
      "anonymous": false,
      "inputs": [
        {
          "indexed": true,
          "internalType": "uint256",
          "name": "tokenId",
          "type": "uint256"
        },
        {
          "indexed": false,
          "internalType": "address",
          "name": "creator",
          "type": "address"
        },
        {
          "indexed": false,
          "internalType": "address",
          "name": "seller",
          "type": "address"
        },
        {
          "indexed": false,
          "internalType": "address",
          "name": "owner",
          "type": "address"
        },
        {
          "indexed": false,
          "internalType": "uint256",
          "name": "price",
          "type": "uint256"
        },
        {
          "indexed": false,
          "internalType": "bool",
          "name": "sold",
          "type": "bool"
        },
        {
          "indexed": false,
          "internalType": "bool",
          "name": "auction",
          "type": "bool"
        },
        {
          "indexed": false,
          "internalType": "uint256",
          "name": "endTime",
          "type": "uint256"
        },
        {
          "indexed": false,
          "internalType": "bool",
          "name": "ended",
          "type": "bool"
        },
        {
          "indexed": false,
          "internalType": "uint256",
          "name": "highestBid",
          "type": "uint256"
        },
        {
          "indexed": false,
          "internalType": "address",
          "name": "highestBidder",
          "type": "address"
        }
      ],
      "name": "MarketItemCreated",
      "type": "event"
    },
    {
      "anonymous": false,
      "inputs": [
        {
          "indexed": true,
          "internalType": "address",
          "name": "from",
          "type": "address"
        },
        {
          "indexed": true,
          "internalType": "address",
          "name": "to",
          "type": "address"
        },
        {
          "indexed": true,
          "internalType": "uint256",
          "name": "tokenId",
          "type": "uint256"
        }
      ],
      "name": "Transfer",
      "type": "event"
    },
    {
      "anonymous": false,
      "inputs": [
        {
          "indexed": false,
          "internalType": "address",
          "name": "sender",
          "type": "address"
        },
        {
          "indexed": false,
          "internalType": "uint256",
          "name": "amount",
          "type": "uint256"
        },
        {
          "indexed": false,
          "internalType": "bool",
          "name": "bidder",
          "type": "bool"
        }
      ],
      "name": "Withdraw",
      "type": "event"
    },
    {
      "inputs": [
        {
          "internalType": "address",
          "name": "to",
          "type": "address"
        },
        {
          "internalType": "uint256",
          "name": "tokenId",
          "type": "uint256"
        }
      ],
      "name": "approve",
      "outputs": [],
      "stateMutability": "nonpayable",
      "type": "function"
    },
    {
      "inputs": [
        {
          "internalType": "address",
          "name": "owner",
          "type": "address"
        }
      ],
      "name": "balanceOf",
      "outputs": [
        {
          "internalType": "uint256",
          "name": "",
          "type": "uint256"
        }
      ],
      "stateMutability": "view",
      "type": "function"
    },
    {
      "inputs": [
        {
          "internalType": "uint256",
          "name": "tokenId",
          "type": "uint256"
        }
      ],
      "name": "bid",
      "outputs": [],
      "stateMutability": "payable",
      "type": "function"
    },
    {
      "inputs": [
        {
          "internalType": "uint256",
          "name": "",
          "type": "uint256"
        },
        {
          "internalType": "address",
          "name": "",
          "type": "address"
        }
      ],
      "name": "bids",
      "outputs": [
        {
          "internalType": "uint256",
          "name": "",
          "type": "uint256"
        }
      ],
      "stateMutability": "view",
      "type": "function"
    },
    {
      "inputs": [
        {
          "internalType": "uint256",
          "name": "tokenId",
          "type": "uint256"
        }
      ],
      "name": "createMarketSale",
      "outputs": [],
      "stateMutability": "payable",
      "type": "function"
    },
    {
      "inputs": [
        {
          "internalType": "string",
          "name": "tokenURI",
          "type": "string"
        },
        {
          "internalType": "uint256",
          "name": "price",
          "type": "uint256"
        },
        {
          "internalType": "bool",
          "name": "auction",
          "type": "bool"
        },
        {
          "internalType": "uint256",
          "name": "endTime",
          "type": "uint256"
        }
      ],
      "name": "createToken",
      "outputs": [
        {
          "internalType": "uint256",
          "name": "",
          "type": "uint256"
        }
      ],
      "stateMutability": "payable",
      "type": "function"
    },
    {
      "inputs": [
        {
          "internalType": "uint256",
          "name": "tokenId",
          "type": "uint256"
        }
      ],
      "name": "endAuction",
      "outputs": [],
      "stateMutability": "nonpayable",
      "type": "function"
    },
    {
      "inputs": [],
      "name": "fetchAuctionItems",
      "outputs": [
        {
          "components": [
            {
              "internalType": "uint256",
              "name": "tokenId",
              "type": "uint256"
            },
            {
              "internalType": "address",
              "name": "creator",
              "type": "address"
            },
            {
              "internalType": "address payable",
              "name": "seller",
              "type": "address"
            },
            {
              "internalType": "address payable",
              "name": "owner",
              "type": "address"
            },
            {
              "internalType": "uint256",
              "name": "price",
              "type": "uint256"
            },
            {
              "internalType": "bool",
              "name": "sold",
              "type": "bool"
            },
            {
              "internalType": "bool",
              "name": "auction",
              "type": "bool"
            },
            {
              "internalType": "uint256",
              "name": "endTime",
              "type": "uint256"
            },
            {
              "internalType": "bool",
              "name": "ended",
              "type": "bool"
            },
            {
              "internalType": "uint256",
              "name": "highestBid",
              "type": "uint256"
            },
            {
              "internalType": "address payable",
              "name": "highestBidder",
              "type": "address"
            }
          ],
          "internalType": "struct NFTMarketplace.MarketItem[]",
          "name": "",
          "type": "tuple[]"
        }
      ],
      "stateMutability": "view",
      "type": "function"
    },
    {
      "inputs": [],
      "name": "fetchAuctionedItems",
      "outputs": [
        {
          "components": [
            {
              "internalType": "uint256",
              "name": "tokenId",
              "type": "uint256"
            },
            {
              "internalType": "address",
              "name": "creator",
              "type": "address"
            },
            {
              "internalType": "address payable",
              "name": "seller",
              "type": "address"
            },
            {
              "internalType": "address payable",
              "name": "owner",
              "type": "address"
            },
            {
              "internalType": "uint256",
              "name": "price",
              "type": "uint256"
            },
            {
              "internalType": "bool",
              "name": "sold",
              "type": "bool"
            },
            {
              "internalType": "bool",
              "name": "auction",
              "type": "bool"
            },
            {
              "internalType": "uint256",
              "name": "endTime",
              "type": "uint256"
            },
            {
              "internalType": "bool",
              "name": "ended",
              "type": "bool"
            },
            {
              "internalType": "uint256",
              "name": "highestBid",
              "type": "uint256"
            },
            {
              "internalType": "address payable",
              "name": "highestBidder",
              "type": "address"
            }
          ],
          "internalType": "struct NFTMarketplace.MarketItem[]",
          "name": "",
          "type": "tuple[]"
        }
      ],
      "stateMutability": "view",
      "type": "function"
    },
    {
      "inputs": [],
      "name": "fetchCreatedItems",
      "outputs": [
        {
          "components": [
            {
              "internalType": "uint256",
              "name": "tokenId",
              "type": "uint256"
            },
            {
              "internalType": "address",
              "name": "creator",
              "type": "address"
            },
            {
              "internalType": "address payable",
              "name": "seller",
              "type": "address"
            },
            {
              "internalType": "address payable",
              "name": "owner",
              "type": "address"
            },
            {
              "internalType": "uint256",
              "name": "price",
              "type": "uint256"
            },
            {
              "internalType": "bool",
              "name": "sold",
              "type": "bool"
            },
            {
              "internalType": "bool",
              "name": "auction",
              "type": "bool"
            },
            {
              "internalType": "uint256",
              "name": "endTime",
              "type": "uint256"
            },
            {
              "internalType": "bool",
              "name": "ended",
              "type": "bool"
            },
            {
              "internalType": "uint256",
              "name": "highestBid",
              "type": "uint256"
            },
            {
              "internalType": "address payable",
              "name": "highestBidder",
              "type": "address"
            }
          ],
          "internalType": "struct NFTMarketplace.MarketItem[]",
          "name": "",
          "type": "tuple[]"
        }
      ],
      "stateMutability": "view",
      "type": "function"
    },
    {
      "inputs": [],
      "name": "fetchItemsListed",
      "outputs": [
        {
          "components": [
            {
              "internalType": "uint256",
              "name": "tokenId",
              "type": "uint256"
            },
            {
              "internalType": "address",
              "name": "creator",
              "type": "address"
            },
            {
              "internalType": "address payable",
              "name": "seller",
              "type": "address"
            },
            {
              "internalType": "address payable",
              "name": "owner",
              "type": "address"
            },
            {
              "internalType": "uint256",
              "name": "price",
              "type": "uint256"
            },
            {
              "internalType": "bool",
              "name": "sold",
              "type": "bool"
            },
            {
              "internalType": "bool",
              "name": "auction",
              "type": "bool"
            },
            {
              "internalType": "uint256",
              "name": "endTime",
              "type": "uint256"
            },
            {
              "internalType": "bool",
              "name": "ended",
              "type": "bool"
            },
            {
              "internalType": "uint256",
              "name": "highestBid",
              "type": "uint256"
            },
            {
              "internalType": "address payable",
              "name": "highestBidder",
              "type": "address"
            }
          ],
          "internalType": "struct NFTMarketplace.MarketItem[]",
          "name": "",
          "type": "tuple[]"
        }
      ],
      "stateMutability": "view",
      "type": "function"
    },
    {
      "inputs": [],
      "name": "fetchMarketItems",
      "outputs": [
        {
          "components": [
            {
              "internalType": "uint256",
              "name": "tokenId",
              "type": "uint256"
            },
            {
              "internalType": "address",
              "name": "creator",
              "type": "address"
            },
            {
              "internalType": "address payable",
              "name": "seller",
              "type": "address"
            },
            {
              "internalType": "address payable",
              "name": "owner",
              "type": "address"
            },
            {
              "internalType": "uint256",
              "name": "price",
              "type": "uint256"
            },
            {
              "internalType": "bool",
              "name": "sold",
              "type": "bool"
            },
            {
              "internalType": "bool",
              "name": "auction",
              "type": "bool"
            },
            {
              "internalType": "uint256",
              "name": "endTime",
              "type": "uint256"
            },
            {
              "internalType": "bool",
              "name": "ended",
              "type": "bool"
            },
            {
              "internalType": "uint256",
              "name": "highestBid",
              "type": "uint256"
            },
            {
              "internalType": "address payable",
              "name": "highestBidder",
              "type": "address"
            }
          ],
          "internalType": "struct NFTMarketplace.MarketItem[]",
          "name": "",
          "type": "tuple[]"
        }
      ],
      "stateMutability": "view",
      "type": "function"
    },
    {
      "inputs": [],
      "name": "fetchMyNFTs",
      "outputs": [
        {
          "components": [
            {
              "internalType": "uint256",
              "name": "tokenId",
              "type": "uint256"
            },
            {
              "internalType": "address",
              "name": "creator",
              "type": "address"
            },
            {
              "internalType": "address payable",
              "name": "seller",
              "type": "address"
            },
            {
              "internalType": "address payable",
              "name": "owner",
              "type": "address"
            },
            {
              "internalType": "uint256",
              "name": "price",
              "type": "uint256"
            },
            {
              "internalType": "bool",
              "name": "sold",
              "type": "bool"
            },
            {
              "internalType": "bool",
              "name": "auction",
              "type": "bool"
            },
            {
              "internalType": "uint256",
              "name": "endTime",
              "type": "uint256"
            },
            {
              "internalType": "bool",
              "name": "ended",
              "type": "bool"
            },
            {
              "internalType": "uint256",
              "name": "highestBid",
              "type": "uint256"
            },
            {
              "internalType": "address payable",
              "name": "highestBidder",
              "type": "address"
            }
          ],
          "internalType": "struct NFTMarketplace.MarketItem[]",
          "name": "",
          "type": "tuple[]"
        }
      ],
      "stateMutability": "view",
      "type": "function"
    },
    {
      "inputs": [
        {
          "internalType": "uint256",
          "name": "tokenId",
          "type": "uint256"
        }
      ],
      "name": "getApproved",
      "outputs": [
        {
          "internalType": "address",
          "name": "",
          "type": "address"
        }
      ],
      "stateMutability": "view",
      "type": "function"
    },
    {
      "inputs": [],
      "name": "getListingPrice",
      "outputs": [
        {
          "internalType": "uint256",
          "name": "",
          "type": "uint256"
        }
      ],
      "stateMutability": "view",
      "type": "function"
    },
    {
      "inputs": [
        {
          "internalType": "address",
          "name": "owner",
          "type": "address"
        },
        {
          "internalType": "address",
          "name": "operator",
          "type": "address"
        }
      ],
      "name": "isApprovedForAll",
      "outputs": [
        {
          "internalType": "bool",
          "name": "",
          "type": "bool"
        }
      ],
      "stateMutability": "view",
      "type": "function"
    },
    {
      "inputs": [],
      "name": "name",
      "outputs": [
        {
          "internalType": "string",
          "name": "",
          "type": "string"
        }
      ],
      "stateMutability": "view",
      "type": "function"
    },
    {
      "inputs": [
        {
          "internalType": "uint256",
          "name": "tokenId",
          "type": "uint256"
        }
      ],
      "name": "ownerOf",
      "outputs": [
        {
          "internalType": "address",
          "name": "",
          "type": "address"
        }
      ],
      "stateMutability": "view",
      "type": "function"
    },
    {
      "inputs": [
        {
          "internalType": "uint256",
          "name": "tokenId",
          "type": "uint256"
        },
        {
          "internalType": "uint256",
          "name": "price",
          "type": "uint256"
        },
        {
          "internalType": "uint256",
          "name": "endTime",
          "type": "uint256"
        }
      ],
      "name": "reauctionToken",
      "outputs": [],
      "stateMutability": "payable",
      "type": "function"
    },
    {
      "inputs": [
        {
          "internalType": "uint256",
          "name": "tokenId",
          "type": "uint256"
        },
        {
          "internalType": "uint256",
          "name": "price",
          "type": "uint256"
        }
      ],
      "name": "resellToken",
      "outputs": [],
      "stateMutability": "payable",
      "type": "function"
    },
    {
      "inputs": [
        {
          "internalType": "address",
          "name": "from",
          "type": "address"
        },
        {
          "internalType": "address",
          "name": "to",
          "type": "address"
        },
        {
          "internalType": "uint256",
          "name": "tokenId",
          "type": "uint256"
        }
      ],
      "name": "safeTransferFrom",
      "outputs": [],
      "stateMutability": "nonpayable",
      "type": "function"
    },
    {
      "inputs": [
        {
          "internalType": "address",
          "name": "from",
          "type": "address"
        },
        {
          "internalType": "address",
          "name": "to",
          "type": "address"
        },
        {
          "internalType": "uint256",
          "name": "tokenId",
          "type": "uint256"
        },
        {
          "internalType": "bytes",
          "name": "data",
          "type": "bytes"
        }
      ],
      "name": "safeTransferFrom",
      "outputs": [],
      "stateMutability": "nonpayable",
      "type": "function"
    },
    {
      "inputs": [
        {
          "internalType": "address",
          "name": "operator",
          "type": "address"
        },
        {
          "internalType": "bool",
          "name": "approved",
          "type": "bool"
        }
      ],
      "name": "setApprovalForAll",
      "outputs": [],
      "stateMutability": "nonpayable",
      "type": "function"
    },
    {
      "inputs": [
        {
          "internalType": "bytes4",
          "name": "interfaceId",
          "type": "bytes4"
        }
      ],
      "name": "supportsInterface",
      "outputs": [
        {
          "internalType": "bool",
          "name": "",
          "type": "bool"
        }
      ],
      "stateMutability": "view",
      "type": "function"
    },
    {
      "inputs": [],
      "name": "symbol",
      "outputs": [
        {
          "internalType": "string",
          "name": "",
          "type": "string"
        }
      ],
      "stateMutability": "view",
      "type": "function"
    },
    {
      "inputs": [
        {
          "internalType": "uint256",
          "name": "tokenId",
          "type": "uint256"
        }
      ],
      "name": "tokenURI",
      "outputs": [
        {
          "internalType": "string",
          "name": "",
          "type": "string"
        }
      ],
      "stateMutability": "view",
      "type": "function"
    },
    {
      "inputs": [
        {
          "internalType": "uint256",
          "name": "",
          "type": "uint256"
        },
        {
          "internalType": "uint256",
          "name": "",
          "type": "uint256"
        }
      ],
      "name": "trackingBidderAddress",
      "outputs": [
        {
          "internalType": "address",
          "name": "",
          "type": "address"
        }
      ],
      "stateMutability": "view",
      "type": "function"
    },
    {
      "inputs": [
        {
          "internalType": "uint256",
          "name": "",
          "type": "uint256"
        }
      ],
      "name": "trackingBidderCount",
      "outputs": [
        {
          "internalType": "uint256",
          "name": "",
          "type": "uint256"
        }
      ],
      "stateMutability": "view",
      "type": "function"
    },
    {
      "inputs": [
        {
          "internalType": "address",
          "name": "from",
          "type": "address"
        },
        {
          "internalType": "address",
          "name": "to",
          "type": "address"
        },
        {
          "internalType": "uint256",
          "name": "tokenId",
          "type": "uint256"
        }
      ],
      "name": "transferFrom",
      "outputs": [],
      "stateMutability": "nonpayable",
      "type": "function"
    },
    {
      "inputs": [
        {
          "internalType": "uint256",
          "name": "tokenId",
          "type": "uint256"
        }
      ],
      "name": "unlistMarketItem",
      "outputs": [],
      "stateMutability": "payable",
      "type": "function"
    },
    {
      "inputs": [
        {
          "internalType": "uint256",
          "name": "_listingPrice",
          "type": "uint256"
        }
      ],
      "name": "updateListingPrice",
      "outputs": [],
      "stateMutability": "payable",
      "type": "function"
    },
    {
      "inputs": [
        {
          "internalType": "uint256",
          "name": "tokenId",
          "type": "uint256"
        }
      ],
      "name": "withdraw",
      "outputs": [],
      "stateMutability": "payable",
      "type": "function"
    }
  ],
  "bytecode": "0x608060405265e35fa931a0006009553480156200001b57600080fd5b506040518060400160405280601081526020016f4d657461766572736520546f6b656e7360801b815250604051806040016040528060048152602001631351551560e21b8152508160009081620000739190620001b6565b506001620000828282620001b6565b5050600a80546001600160a01b031916331790555062000286565b634e487b7160e01b600052604160045260246000fd5b634e487b7160e01b600052602260045260246000fd5b600281046001821680620000de57607f821691505b602082108103620000f357620000f3620000b3565b50919050565b60006200010a620001078381565b90565b92915050565b6200011b83620000f9565b81546008840282811b60001990911b908116901990911617825550505050565b60006200014a81848462000110565b505050565b818110156200016e57620001656000826200013b565b6001016200014f565b5050565b601f8211156200014a576000818152602090206020601f850104810160208510156200019b5750805b620001af6020601f8601048301826200014f565b5050505050565b81516001600160401b03811115620001d257620001d26200009d565b620001de8254620000c9565b620001eb82828562000172565b6020601f831160018114620002225760008415620002095750858201515b600019600886021c19811660028602178655506200027e565b600085815260208120601f198616915b8281101562000254578885015182556020948501946001909201910162000232565b86831015620002715784890151600019601f89166008021c191682555b6001600288020188555050505b505050505050565b613d8180620002966000396000f3fe6080604052600436106101e35760003560e01c806354d54e0a11610102578063b88d4fde11610095578063c87b56dd11610064578063c87b56dd1461052b578063e219fc751461054b578063e978904f1461055e578063e985e9c51461058b57600080fd5b8063b88d4fde14610497578063b9a2de3a146104b7578063be9af536146104d7578063c6bc4514146104ea57600080fd5b806395d89b41116100d157806395d89b411461043a5780639ff82b3d1461044f578063a22cb46514610464578063ae677aa31461048457600080fd5b806354d54e0a146103d2578063615d1f03146103e75780636352211e146103fa57806370a082311461041a57600080fd5b80632e1a7d4d1161017a57806342842e0e1161014957806342842e0e1461037757806344e7877a14610397578063454a2ab3146103aa57806345f8fa80146103bd57600080fd5b80632e1a7d4d14610304578063339a4299146103175780633a30690c1461032c5780633f1ffcec1461033f57600080fd5b80630f08efe0116101b65780630f08efe01461028f57806312e85585146102b1578063202e3740146102cf57806323b872dd146102e457600080fd5b806301ffc9a7146101e857806306fdde031461021e578063081812fc14610240578063095ea7b31461026d575b600080fd5b3480156101f457600080fd5b50610208610203366004612c60565b6105ab565b6040516102159190612c8b565b60405180910390f35b34801561022a57600080fd5b506102336105fd565b6040516102159190612cef565b34801561024c57600080fd5b5061026061025b366004612d11565b61068f565b6040516102159190612d4c565b34801561027957600080fd5b5061028d610288366004612d6e565b6106b6565b005b34801561029b57600080fd5b506102a4610744565b6040516102159190612ee5565b3480156102bd57600080fd5b506009545b6040516102159190612ef6565b3480156102db57600080fd5b506102a46109b6565b3480156102f057600080fd5b5061028d6102ff366004612f04565b610bb6565b61028d610312366004612d11565b610be7565b34801561032357600080fd5b506102a4610dd9565b61028d61033a366004612f54565b61104d565b34801561034b57600080fd5b506102c261035a366004612f89565b600c60209081526000928352604080842090915290825290205481565b34801561038357600080fd5b5061028d610392366004612f04565b611124565b61028d6103a5366004612d11565b61113f565b61028d6103b8366004612d11565b61123b565b3480156103c957600080fd5b506102a461145e565b3480156103de57600080fd5b506102a46116c8565b6102c26103f53660046130c2565b6118cb565b34801561040657600080fd5b50610260610415366004612d11565b611913565b34801561042657600080fd5b506102c2610435366004613140565b611948565b34801561044657600080fd5b5061023361198c565b34801561045b57600080fd5b506102a461199b565b34801561047057600080fd5b5061028d61047f366004613161565b611b9b565b61028d610492366004612d11565b611baa565b3480156104a357600080fd5b5061028d6104b2366004613194565b611bd9565b3480156104c357600080fd5b5061028d6104d2366004612d11565b611c0b565b61028d6104e5366004612d11565b611e8f565b3480156104f657600080fd5b50610260610505366004613207565b600e6020908152600092835260408084209091529082529020546001600160a01b031681565b34801561053757600080fd5b50610233610546366004612d11565b611f9b565b61028d610559366004613207565b6120a3565b34801561056a57600080fd5b506102c2610579366004612d11565b600d6020526000908152604090205481565b34801561059757600080fd5b506102086105a6366004613229565b612158565b60006001600160e01b031982166380ac58cd60e01b14806105dc57506001600160e01b03198216635b5e139f60e01b145b806105f757506301ffc9a760e01b6001600160e01b03198316145b92915050565b60606000805461060c90613261565b80601f016020809104026020016040519081016040528092919081815260200182805461063890613261565b80156106855780601f1061065a57610100808354040283529160200191610685565b820191906000526020600020905b81548152906001019060200180831161066857829003601f168201915b5050505050905090565b600061069a82612186565b506000908152600460205260409020546001600160a01b031690565b60006106c182611913565b9050806001600160a01b0316836001600160a01b0316036106fd5760405162461bcd60e51b81526004016106f4906132ce565b60405180910390fd5b336001600160a01b038216148061071957506107198133612158565b6107355760405162461bcd60e51b81526004016106f490613338565b61073f83836121bd565b505050565b6060600061075160075490565b90506000805b828110156107e65730600b600061076f84600161335e565b81526020810191909152604001600020600301546001600160a01b03161480156107c15750600b60006107a383600161335e565b8152602081019190915260400160002060050154610100900460ff16155b156107d4576107d160018361335e565b91505b806107de81613371565b915050610757565b506000808267ffffffffffffffff81111561080357610803612fbc565b60405190808252806020026020018201604052801561083c57816020015b610829612be2565b8152602001906001900390816108215790505b50905060005b848110156109ad5730600b600061085a84600161335e565b81526020810191909152604001600020600301546001600160a01b03161480156108ac5750600b600061088e83600161335e565b8152602081019190915260400160002060050154610100900460ff16155b1561099b5760006108be82600161335e565b6000818152600b60209081526040918290208251610160810184528154815260018201546001600160a01b0390811693820193909352600282015483169381019390935260038101548216606084015260048101546080840152600581015460ff808216151560a0860152610100918290048116151560c0860152600683015460e0860152600783015416151590840152600881015461012084015260098101549091166101408301528551929350918590879081106109805761098061338b565b602090810291909101015261099660018661335e565b945050505b806109a581613371565b915050610842565b50949350505050565b606060006109c360075490565b905060008060005b83811015610a255733600b60006109e384600161335e565b81526020810191909152604001600020600301546001600160a01b031603610a1357610a1060018461335e565b92505b80610a1d81613371565b9150506109cb565b5060008267ffffffffffffffff811115610a4157610a41612fbc565b604051908082528060200260200182016040528015610a7a57816020015b610a67612be2565b815260200190600190039081610a5f5790505b50905060005b848110156109ad5733600b6000610a9884600161335e565b81526020810191909152604001600020600301546001600160a01b031603610ba4576000610ac782600161335e565b6000818152600b60209081526040918290208251610160810184528154815260018201546001600160a01b0390811693820193909352600282015483169381019390935260038101548216606084015260048101546080840152600581015460ff808216151560a0860152610100918290048116151560c0860152600683015460e086015260078301541615159084015260088101546101208401526009810154909116610140830152855192935091859087908110610b8957610b8961338b565b6020908102919091010152610b9f60018661335e565b945050505b80610bae81613371565b915050610a80565b610bc0338261222b565b610bdc5760405162461bcd60e51b81526004016106f4906133eb565b61073f838383612289565b6000818152600d602052604081205490805b82811015610ce9576000848152600e602052604081203391610c1c84600161335e565b81526020810191909152604001600020546001600160a01b031603610cd757610c4681600161335e565b6000858152600c6020908152604080832033808552925280832080549084905590519395509290916108fc841502918491818181858888f19350505050158015610c94573d6000803e3d6000fd5b507f039d3e7ccc0d8edf3fb8206bf9f58888c4cced8c157c730a2407a54aad7c865c33826001604051610cc9939291906133fb565b60405180910390a150610ce9565b80610ce181613371565b915050610bf9565b5080600003610d33577f039d3e7ccc0d8edf3fb8206bf9f58888c4cced8c157c730a2407a54aad7c865c33600080604051610d269392919061343b565b60405180910390a1505050565b600160005b83811015610db1576000858152600e6020526040812081610d5a84600161335e565b81526020808201929092526040908101600090812054898252600c84528282206001600160a01b039091168083529352205490915015610d9e576000925050610db1565b5080610da981613371565b915050610d38565b508015610dd3576000848152600b60205260409020600501805461ff00191690555b50505050565b60606000610de660075490565b905060008060005b83811015610e825733600b6000610e0684600161335e565b81526020810191909152604001600020600201546001600160a01b0316148015610e5d5750600b6000610e3a83600161335e565b815260208101919091526040016000206005015460ff6101009091041615156001145b15610e7057610e6d60018461335e565b92505b80610e7a81613371565b915050610dee565b5060008267ffffffffffffffff811115610e9e57610e9e612fbc565b604051908082528060200260200182016040528015610ed757816020015b610ec4612be2565b815260200190600190039081610ebc5790505b50905060005b848110156109ad5733600b6000610ef584600161335e565b81526020810191909152604001600020600201546001600160a01b0316148015610f4c5750600b6000610f2983600161335e565b815260208101919091526040016000206005015460ff6101009091041615156001145b1561103b576000610f5e82600161335e565b6000818152600b60209081526040918290208251610160810184528154815260018201546001600160a01b0390811693820193909352600282015483169381019390935260038101548216606084015260048101546080840152600581015460ff808216151560a0860152610100918290048116151560c0860152600683015460e0860152600783015416151590840152600881015461012084015260098101549091166101408301528551929350918590879081106110205761102061338b565b602090810291909101015261103660018661335e565b945050505b8061104581613371565b915050610edd565b6000838152600b60205260409020600301546001600160a01b031633146110865760405162461bcd60e51b81526004016106f49061349d565b60095434146110a75760405162461bcd60e51b81526004016106f4906134ee565b6000838152600b60205260409020600581018054600483018590556002830180546001600160a01b0319908116331790915560038401805490911630179055600880840186905561ffff1990911661010017909155600682018390556007909101805460ff19169055611119906123be565b61073f333085612289565b61073f83838360405180602001604052806000815250611bd9565b6000818152600b60205260409020600201546009546001600160a01b0390911690341461117e5760405162461bcd60e51b81526004016106f490613545565b336001600160a01b038216146111a65760405162461bcd60e51b81526004016106f490613581565b6000828152600b602052604090206003810180546001600160a01b0319908116331790915560058201805460ff191660011790556002909101805490911690556111f4600880546001019055565b6111ff303384612289565b600a546009546040516001600160a01b039092169181156108fc0291906000818181858888f1935050505015801561073f573d6000803e3d6000fd5b6000818152600b60205260409020600681015460088201546009909201549091906001600160a01b03164283116112845760405162461bcd60e51b81526004016106f4906135b9565b8134116112a35760405162461bcd60e51b81526004016106f490613614565b6001600160a01b03811615611430576000848152600c602090815260408083206001600160a01b0385168452909152812080548492906112e490849061335e565b90915550506000848152600d60205260408120549003611361576000848152600d6020526040812080546001929061131d90849061335e565b90915550506000848152600d6020908152604080832054600e8352818420908452909152902080546001600160a01b0319166001600160a01b038316179055611430565b6000848152600d6020526040812054905b818110156113cf576000868152600e602052604081206001600160a01b0385169161139e84600161335e565b81526020810191909152604001600020546001600160a01b0316146113cf57806113c781613371565b915050611372565b506000858152600d602052604081208054600192906113ef90849061335e565b9091555050506000848152600d6020908152604080832054600e8352818420908452909152902080546001600160a01b0319166001600160a01b0383161790555b5050506000908152600b602052604090206009810180546001600160a01b0319163317905534600890910155565b6060600061146b60075490565b905060008060005b838110156115025733600b600061148b84600161335e565b81526020810191909152604001600020600201546001600160a01b03161480156114dd5750600b60006114bf83600161335e565b8152602081019190915260400160002060050154610100900460ff16155b156114f0576114ed60018461335e565b92505b806114fa81613371565b915050611473565b5060008267ffffffffffffffff81111561151e5761151e612fbc565b60405190808252806020026020018201604052801561155757816020015b611544612be2565b81526020019060019003908161153c5790505b50905060005b848110156109ad5733600b600061157584600161335e565b81526020810191909152604001600020600201546001600160a01b03161480156115c75750600b60006115a983600161335e565b8152602081019190915260400160002060050154610100900460ff16155b156116b65760006115d982600161335e565b6000818152600b60209081526040918290208251610160810184528154815260018201546001600160a01b0390811693820193909352600282015483169381019390935260038101548216606084015260048101546080840152600581015460ff808216151560a0860152610100918290048116151560c0860152600683015460e08601526007830154161515908401526008810154610120840152600981015490911661014083015285519293509185908790811061169b5761169b61338b565b60209081029190910101526116b160018661335e565b945050505b806116c081613371565b91505061155d565b606060006116d560075490565b90506000805b8281101561173757600b60006116f283600161335e565b8152602081019190915260400160002060050154610100900460ff1615156001036117255761172260018361335e565b91505b8061172f81613371565b9150506116db565b506000808267ffffffffffffffff81111561175457611754612fbc565b60405190808252806020026020018201604052801561178d57816020015b61177a612be2565b8152602001906001900390816117725790505b50905060005b848110156109ad57600b60006117aa83600161335e565b8152602081019190915260400160002060050154610100900460ff1615156001036118b95760006117dc82600161335e565b6000818152600b60209081526040918290208251610160810184528154815260018201546001600160a01b0390811693820193909352600282015483169381019390935260038101548216606084015260048101546080840152600581015460ff808216151560a0860152610100918290048116151560c0860152600683015460e08601526007830154161515908401526008810154610120840152600981015490911661014083015285519293509185908790811061189e5761189e61338b565b60209081029190910101526118b460018661335e565b945050505b806118c381613371565b915050611793565b60006118db600780546001019055565b60006118e660075490565b90506118f233826123e5565b6118fc81876124ee565b6119088186868661253a565b90505b949350505050565b6000818152600260205260408120546001600160a01b0316806105f75760405162461bcd60e51b81526004016106f490613658565b60006001600160a01b0382166119705760405162461bcd60e51b81526004016106f4906136ae565b506001600160a01b031660009081526003602052604090205490565b60606001805461060c90613261565b606060006119a860075490565b905060008060005b83811015611a0a5733600b60006119c884600161335e565b81526020810191909152604001600020600101546001600160a01b0316036119f8576119f560018461335e565b92505b80611a0281613371565b9150506119b0565b5060008267ffffffffffffffff811115611a2657611a26612fbc565b604051908082528060200260200182016040528015611a5f57816020015b611a4c612be2565b815260200190600190039081611a445790505b50905060005b848110156109ad5733600b6000611a7d84600161335e565b81526020810191909152604001600020600101546001600160a01b031603611b89576000611aac82600161335e565b6000818152600b60209081526040918290208251610160810184528154815260018201546001600160a01b0390811693820193909352600282015483169381019390935260038101548216606084015260048101546080840152600581015460ff808216151560a0860152610100918290048116151560c0860152600683015460e086015260078301541615159084015260088101546101208401526009810154909116610140830152855192935091859087908110611b6e57611b6e61338b565b6020908102919091010152611b8460018661335e565b945050505b80611b9381613371565b915050611a65565b611ba63383836127a7565b5050565b600a546001600160a01b03163314611bd45760405162461bcd60e51b81526004016106f49061370b565b600955565b611be3338361222b565b611bff5760405162461bcd60e51b81526004016106f4906133eb565b610dd384848484612849565b6000818152600d6020908152604080832054600b909252909120600681015460079091015460ff168015611c515760405162461bcd60e51b81526004016106f4906135b9565b6000848152600b60205260409020600701805460ff19166001179055611c7b600880546001019055565b6000848152600b60205260409020600281015460098201546008909201546001600160a01b0391821692909116908115611e09576000878152600b602090815260408083206003810180546001600160a01b03199081166001600160a01b038916179091556005820180546002840180548416905561ffff191661010117905560098201805490911690556008810184905560040184905580519182019052908152611d2c90309084908a90612849565b6040516001600160a01b0384169082156108fc029083906000818181858888f19350505050158015611d62573d6000803e3d6000fd5b50600160005b87811015611de1576000898152600e6020526040812081611d8a84600161335e565b815260208082019290925260409081016000908120548d8252600c84528282206001600160a01b039091168083529352205490915015611dce576000925050611de1565b5080611dd981613371565b915050611d68565b508015611e03576000888152600b60205260409020600501805461ff00191690555b50611e86565b6000878152600b602090815260408083206003810180546001600160a01b0389166001600160a01b03199182168117909255600583018054600285018054841690941790935561ffff19909216600117909155600982018054909116905560080183905580519182019052908152611e8690309085908a90612849565b50505050505050565b6000818152600b6020526040902060048101546002909101546001600160a01b0316348214611ed05760405162461bcd60e51b81526004016106f490613775565b6000838152600b602052604090206003810180546001600160a01b0319908116331790915560058201805460ff19166001179055600290910180549091169055611f1e600880546001019055565b611f29303385612289565b600a546009546040516001600160a01b039092169181156108fc0291906000818181858888f19350505050158015611f65573d6000803e3d6000fd5b506040516001600160a01b038216903480156108fc02916000818181858888f19350505050158015610dd3573d6000803e3d6000fd5b6060611fa682612186565b60008281526006602052604081208054611fbf90613261565b80601f0160208091040260200160405190810160405280929190818152602001828054611feb90613261565b80156120385780601f1061200d57610100808354040283529160200191612038565b820191906000526020600020905b81548152906001019060200180831161201b57829003601f168201915b50505050509050600061205660408051602081019091526000815290565b90508051600003612068575092915050565b81511561209a5780826040516020016120829291906137a7565b60405160208183030381529060405292505050919050565b61190b8461287c565b6000828152600b60205260409020600301546001600160a01b031633146120dc5760405162461bcd60e51b81526004016106f49061349d565b60095434146120fd5760405162461bcd60e51b81526004016106f4906134ee565b6000828152600b6020526040902060058101805460ff19169055600481018290556002810180546001600160a01b03199081163317909155600390910180549091163017905561214d60086123be565b611ba6333084612289565b6001600160a01b03918216600090815260056020908152604080832093909416825291909152205460ff1690565b6000818152600260205260409020546001600160a01b03166121ba5760405162461bcd60e51b81526004016106f490613658565b50565b600081815260046020526040902080546001600160a01b0319166001600160a01b03841690811790915581906121f282611913565b6001600160a01b03167f8c5be1e5ebec7d5bd14f71427d1e84f3dd0314c0f7b2291e5b200ac8c7c3b92560405160405180910390a45050565b60008061223783611913565b9050806001600160a01b0316846001600160a01b0316148061225e575061225e8185612158565b8061190b5750836001600160a01b03166122778461068f565b6001600160a01b031614949350505050565b826001600160a01b031661229c82611913565b6001600160a01b0316146122c25760405162461bcd60e51b81526004016106f490613801565b6001600160a01b0382166122e85760405162461bcd60e51b81526004016106f490613852565b6122f583838360016128f0565b826001600160a01b031661230882611913565b6001600160a01b03161461232e5760405162461bcd60e51b81526004016106f490613801565b600081815260046020908152604080832080546001600160a01b03199081169091556001600160a01b0387811680865260038552838620805460001901905590871680865283862080546001019055868652600290945282852080549092168417909155905184937fddf252ad1be2c89b69c2b068fc378daa952ba7f163c4a11628f55a4df523b3ef91a4505050565b8054806123dd5760405162461bcd60e51b81526004016106f490613896565b600019019055565b6001600160a01b03821661240b5760405162461bcd60e51b81526004016106f4906138d8565b6000818152600260205260409020546001600160a01b0316156124405760405162461bcd60e51b81526004016106f49061391c565b61244e6000838360016128f0565b6000818152600260205260409020546001600160a01b0316156124835760405162461bcd60e51b81526004016106f49061391c565b6001600160a01b038216600081815260036020908152604080832080546001019055848352600290915280822080546001600160a01b0319168417905551839291907fddf252ad1be2c89b69c2b068fc378daa952ba7f163c4a11628f55a4df523b3ef908290a45050565b6000828152600260205260409020546001600160a01b03166125225760405162461bcd60e51b81526004016106f490613977565b600082815260066020526040902061073f8282613a18565b6000831161255a5760405162461bcd60e51b81526004016106f490613b10565b600954341461257b5760405162461bcd60e51b81526004016106f490613b61565b604051806101600160405280858152602001336001600160a01b03168152602001336001600160a01b03168152602001306001600160a01b03168152602001848152602001600015158152602001831515815260200182815260200160001515815260200184815260200160006001600160a01b0316815250600b60008681526020019081526020016000206000820151816000015560208201518160010160006101000a8154816001600160a01b0302191690836001600160a01b0316021790555060408201518160020160006101000a8154816001600160a01b0302191690836001600160a01b0316021790555060608201518160030160006101000a8154816001600160a01b0302191690836001600160a01b031602179055506080820151816004015560a08201518160050160006101000a81548160ff02191690831515021790555060c08201518160050160016101000a81548160ff02191690831515021790555060e082015181600601556101008201518160070160006101000a81548160ff02191690831515021790555061012082015181600801556101408201518160090160006101000a8154816001600160a01b0302191690836001600160a01b03160217905550905050612754333086612289565b837fa4b4f46cc52348966722b5ccac7c3b6eeffc992aaf09e6b4520bd06f1d33821e333330876000888860008c60006040516127999a99989796959493929190613b90565b60405180910390a250505050565b816001600160a01b0316836001600160a01b0316036127d85760405162461bcd60e51b81526004016106f490613c59565b6001600160a01b0383811660008181526005602090815260408083209487168084529490915290819020805460ff1916851515179055517f17307eab39ab6107e8899845ad3d59bd9653f200f220920489ca2b5937696c319061283c908590612c8b565b60405180910390a3505050565b612854848484612289565b61286084848484612978565b610dd35760405162461bcd60e51b81526004016106f490613cb8565b606061288782612186565b600061289e60408051602081019091526000815290565b905060008151116128be57604051806020016040528060008152506128e9565b806128c884612a76565b6040516020016128d99291906137a7565b6040516020818303038152906040525b9392505050565b6001811115610dd3576001600160a01b03841615612936576001600160a01b03841660009081526003602052604081208054839290612930908490613cc8565b90915550505b6001600160a01b03831615610dd3576001600160a01b0383166000908152600360205260408120805483929061296d90849061335e565b909155505050505050565b60006001600160a01b0384163b15612a6e57604051630a85bd0160e11b81526001600160a01b0385169063150b7a02906129bc903390899088908890600401613cdb565b6020604051808303816000875af19250505080156129f7575060408051601f3d908101601f191682019092526129f491810190613d2a565b60015b612a54573d808015612a25576040519150601f19603f3d011682016040523d82523d6000602084013e612a2a565b606091505b508051600003612a4c5760405162461bcd60e51b81526004016106f490613cb8565b805181602001fd5b6001600160e01b031916630a85bd0160e11b14905061190b565b50600161190b565b60606000612a8383612b0a565b600101905060008167ffffffffffffffff811115612aa357612aa3612fbc565b6040519080825280601f01601f191660200182016040528015612acd576020820181803683370190505b5090508181016020015b600019016f181899199a1a9b1b9c1cb0b131b232b360811b600a86061a8153600a8504945084612ad7575b509392505050565b60008072184f03e93ff9f4daa797ed6e38ed64bf6a1f0160401b8310612b495772184f03e93ff9f4daa797ed6e38ed64bf6a1f0160401b830492506040015b6d04ee2d6d415b85acef81000000008310612b75576d04ee2d6d415b85acef8100000000830492506020015b662386f26fc100008310612b9357662386f26fc10000830492506010015b6305f5e1008310612bab576305f5e100830492506008015b6127108310612bbf57612710830492506004015b60648310612bd1576064830492506002015b600a83106105f75760010192915050565b6040805161016081018252600080825260208201819052918101829052606081018290526080810182905260a0810182905260c0810182905260e081018290526101008101829052610120810182905261014081019190915290565b6001600160e01b031981165b81146121ba57600080fd5b80356105f781612c3e565b600060208284031215612c7557612c75600080fd5b600061190b8484612c55565b8015155b82525050565b602081016105f78284612c81565b60005b83811015612cb4578181015183820152602001612c9c565b50506000910152565b6000612cc7825190565b808452602084019350612cde818560208601612c99565b601f01601f19169290920192915050565b602080825281016128e98184612cbd565b80612c4a565b80356105f781612d00565b600060208284031215612d2657612d26600080fd5b600061190b8484612d06565b60006001600160a01b0382166105f7565b612c8581612d32565b602081016105f78284612d43565b612c4a81612d32565b80356105f781612d5a565b60008060408385031215612d8457612d84600080fd5b6000612d908585612d63565b9250506020612da185828601612d06565b9150509250929050565b80612c85565b8051610160830190612dc38482612dab565b506020820151612dd66020850182612d43565b506040820151612de96040850182612d43565b506060820151612dfc6060850182612d43565b506080820151612e0f6080850182612dab565b5060a0820151612e2260a0850182612c81565b5060c0820151612e3560c0850182612c81565b5060e0820151612e4860e0850182612dab565b50610100820151612e5d610100850182612c81565b50610120820151612e72610120850182612dab565b50610140820151610dd3610140850182612d43565b6000612e938383612db1565b50506101600190565b6000612ea6825190565b80845260209384019383018060005b83811015612eda578151612ec98882612e87565b975060208301925050600101612eb5565b509495945050505050565b602080825281016128e98184612e9c565b602081016105f78284612dab565b600080600060608486031215612f1c57612f1c600080fd5b6000612f288686612d63565b9350506020612f3986828701612d63565b9250506040612f4a86828701612d06565b9150509250925092565b600080600060608486031215612f6c57612f6c600080fd5b6000612f788686612d06565b9350506020612f3986828701612d06565b60008060408385031215612f9f57612f9f600080fd5b6000612fab8585612d06565b9250506020612da185828601612d63565b634e487b7160e01b600052604160045260246000fd5b601f19601f830116810181811067ffffffffffffffff82111715612ff857612ff8612fbc565b6040525050565b600061300a60405190565b90506130168282612fd2565b919050565b600067ffffffffffffffff82111561303557613035612fbc565b601f19601f83011660200192915050565b82818337506000910152565b60006130656130608461301b565b612fff565b90508281526020810184848401111561308057613080600080fd5b612b02848285613046565b600082601f83011261309f5761309f600080fd5b813561190b848260208601613052565b801515612c4a565b80356105f7816130af565b600080600080608085870312156130db576130db600080fd5b843567ffffffffffffffff8111156130f5576130f5600080fd5b6131018782880161308b565b945050602061311287828801612d06565b9350506040613123878288016130b7565b925050606061313487828801612d06565b91505092959194509250565b60006020828403121561315557613155600080fd5b600061190b8484612d63565b6000806040838503121561317757613177600080fd5b60006131838585612d63565b9250506020612da1858286016130b7565b600080600080608085870312156131ad576131ad600080fd5b60006131b98787612d63565b94505060206131ca87828801612d63565b93505060406131db87828801612d06565b925050606085013567ffffffffffffffff8111156131fb576131fb600080fd5b6131348782880161308b565b6000806040838503121561321d5761321d600080fd5b6000612d908585612d06565b6000806040838503121561323f5761323f600080fd5b6000612fab8585612d63565b634e487b7160e01b600052602260045260246000fd5b60028104600182168061327557607f821691505b6020821081036132875761328761324b565b50919050565b602181526000602082017f4552433732313a20617070726f76616c20746f2063757272656e74206f776e658152603960f91b602082015291505b5060400190565b602080825281016105f78161328d565b603d81526000602082017f4552433732313a20617070726f76652063616c6c6572206973206e6f7420746f81527f6b656e206f776e6572206f7220617070726f76656420666f7220616c6c000000602082015291506132c7565b602080825281016105f7816132de565b634e487b7160e01b600052601160045260246000fd5b808201808211156105f7576105f7613348565b6000600019820361338457613384613348565b5060010190565b634e487b7160e01b600052603260045260246000fd5b602d81526000602082017f4552433732313a2063616c6c6572206973206e6f7420746f6b656e206f776e6581526c1c881bdc88185c1c1c9bdd9959609a1b602082015291506132c7565b602080825281016105f7816133a1565b606081016134098286612d43565b6134166020830185612dab565b61190b6040830184612c81565b60006105f761342f8381565b90565b612c8581613423565b606081016134498286612d43565b6134166020830185613432565b602a81526000602082017f4f6e6c79206974656d206f776e65722063616e20706572666f726d20746869738152691037b832b930ba34b7b760b11b602082015291506132c7565b602080825281016105f781613456565b602481526000602082017f5072696365206d75737420626520657175616c20746f206c697374696e6720708152637269636560e01b602082015291506132c7565b602080825281016105f7816134ad565b602a81526000602082017f506c65617365207375626d69742076616c756520657175616c20746f206c697381526974696e6720707269636560b01b602082015291506132c7565b602080825281016105f7816134fe565b60128152600060208201712cb7ba9030b932903737ba1039b2b63632b960711b815291505b5060200190565b602080825281016105f781613555565b6011815260006020820170105d58dd1a5bdb881a185cc8195b991959607a1b8152915061357a565b602080825281016105f781613591565b602e81526000602082017f56616c7565206d7573742062652067726561746572207468616e20637572726581526d1b9d081a1a59da195cdd08189a5960921b602082015291506132c7565b602080825281016105f7816135c9565b601881526000602082017f4552433732313a20696e76616c696420746f6b656e20494400000000000000008152915061357a565b602080825281016105f781613624565b602981526000602082017f4552433732313a2061646472657373207a65726f206973206e6f7420612076618152683634b21037bbb732b960b91b602082015291506132c7565b602080825281016105f781613668565b603081526000602082017f4f6e6c79206d61726b6574706c616365206f776e65722063616e20757064617481526f32903634b9ba34b73390383934b1b29760811b602082015291506132c7565b602080825281016105f7816136be565b604081526000602082017f506c65617365207375626d6974207468652061736b696e67207072696365206981527f6e206f7264657220746f20636f6d706c65746520746865207075726368617365602082015291506132c7565b602080825281016105f78161371b565b600061378f825190565b61379d818560208601612c99565b9290920192915050565b60006137b38285613785565b915061190b8284613785565b602581526000602082017f4552433732313a207472616e736665722066726f6d20696e636f72726563742081526437bbb732b960d91b602082015291506132c7565b602080825281016105f7816137bf565b602481526000602082017f4552433732313a207472616e7366657220746f20746865207a65726f206164648152637265737360e01b602082015291506132c7565b602080825281016105f781613811565b601b81526000602082017f436f756e7465723a2064656372656d656e74206f766572666c6f7700000000008152915061357a565b602080825281016105f781613862565b60208082527f4552433732313a206d696e7420746f20746865207a65726f20616464726573739101908152600061357a565b602080825281016105f7816138a6565b601c81526000602082017f4552433732313a20746f6b656e20616c7265616479206d696e746564000000008152915061357a565b602080825281016105f7816138e8565b602e81526000602082017f45524337323155524953746f726167653a2055524920736574206f66206e6f6e81526d32bc34b9ba32b73a103a37b5b2b760911b602082015291506132c7565b602080825281016105f78161392c565b61399083613423565b81546008840282811b60001990911b908116901990911617825550505050565b600061073f818484613987565b81811015611ba6576139d06000826139b0565b6001016139bd565b601f82111561073f576000818152602090206020601f850104810160208510156139ff5750805b613a116020601f8601048301826139bd565b5050505050565b815167ffffffffffffffff811115613a3257613a32612fbc565b613a3c8254613261565b613a478282856139d8565b6020601f831160018114613a7b5760008415613a635750858201515b600019600886021c1981166002860217865550613ad4565b600085815260208120601f198616915b82811015613aab5788850151825560209485019460019092019101613a8b565b86831015613ac75784890151600019601f89166008021c191682555b6001600288020188555050505b505050505050565b601c81526000602082017f5072696365206d757374206265206174206c65617374203120776569000000008152915061357a565b602080825281016105f781613adc565b602481526000602082017f56616c7565206d75737420626520657175616c20746f206c697374696e6720708152637269636560e01b602082015291506132c7565b602080825281016105f781613b20565b60006105f782612d32565b60006105f782613b71565b612c8581613b7c565b6101408101613b9f828d612d43565b613bac602083018c612d43565b613bb9604083018b612d43565b613bc6606083018a612dab565b613bd36080830189612c81565b613be060a0830188612c81565b613bed60c0830187612dab565b613bfa60e0830186612c81565b613c08610100830185612dab565b613c16610120830184613b87565b9b9a5050505050505050505050565b601981526000602082017f4552433732313a20617070726f766520746f2063616c6c6572000000000000008152915061357a565b602080825281016105f781613c25565b603281526000602082017f4552433732313a207472616e7366657220746f206e6f6e20455243373231526581527131b2b4bb32b91034b6b83632b6b2b73a32b960711b602082015291506132c7565b602080825281016105f781613c69565b818103818111156105f7576105f7613348565b60808101613ce98287612d43565b613cf66020830186612d43565b613d036040830185612dab565b8181036060830152613d158184612cbd565b9695505050505050565b80516105f781612c3e565b600060208284031215613d3f57613d3f600080fd5b600061190b8484613d1f56fea2646970667358221220fb376d3e5b0efdc17639a484d1102b127242e001e3b3d08fc08b42fcbe2fa38e64736f6c63430008110033",
  "linkReferences": {},
  "deployedLinkReferences": {}
}